{
    "contractName": "PlagiarismChecker",
    "abi": [
        {
            "anonymous": false,
            "inputs": [
                {
                    "indexed": false,
                    "internalType": "bool",
                    "name": "isPlagiarized",
                    "type": "bool"
                },
                {
                    "indexed": false,
                    "internalType": "string",
                    "name": "documentHash",
                    "type": "string"
                }
            ],
            "name": "CheckResult",
            "type": "event"
        },
        {
            "inputs": [
                {
                    "internalType": "string",
                    "name": "documentHash",
                    "type": "string"
                }
            ],
            "name": "checkPlagiarism",
            "outputs": [],
            "stateMutability": "nonpayable",
            "type": "function"
        }
    ],
    "bytecode": "0x608060405234801561001057600080fd5b506103f4806100206000396000f3fe608060405234801561001057600080fd5b506004361061002b5760003560e01c8063caa31af514610030575b600080fd5b61004a6004803603810190610045919061024f565b61004c565b005b6000808260405161005d9190610312565b908152602001604051809103902060009054906101000a900460ff1690507fe60f5f4e47817b4a25bee1745c956e9008d0d4f7163485d16e350b27330ca96581836040516100ac92919061038e565b60405180910390a1806100f15760016000836040516100cb9190610312565b908152602001604051809103902060006101000a81548160ff0219169083151502179055505b5050565b6000604051905090565b600080fd5b600080fd5b600080fd5b600080fd5b6000601f19601f8301169050919050565b7f4e487b7100000000000000000000000000000000000000000000000000000000600052604160045260246000fd5b61015c82610113565b810181811067ffffffffffffffff8211171561017b5761017a610124565b5b80604052505050565b600061018e6100f5565b905061019a8282610153565b919050565b600067ffffffffffffffff8211156101ba576101b9610124565b5b6101c382610113565b9050602081019050919050565b82818337600083830152505050565b60006101f26101ed8461019f565b610184565b90508281526020810184848401111561020e5761020d61010e565b5b6102198482856101d0565b509392505050565b600082601f83011261023657610235610109565b5b81356102468482602086016101df565b91505092915050565b600060208284031215610265576102646100ff565b5b600082013567ffffffffffffffff81111561028357610282610104565b5b61028f84828501610221565b91505092915050565b600081519050919050565b600081905092915050565b60005b838110156102cc5780820151818401526020810190506102b1565b838111156102db576000848401525b50505050565b60006102ec82610298565b6102f681856102a3565b93506103068185602086016102ae565b80840191505092915050565b600061031e82846102e1565b915081905092915050565b60008115159050919050565b61033e81610329565b82525050565b600082825260208201905092915050565b600061036082610298565b61036a8185610344565b935061037a8185602086016102ae565b61038381610113565b840191505092915050565b60006040820190506103a36000830185610335565b81810360208301526103b58184610355565b9050939250505056fea264697066735822122041b39ce1a189eb252682fe43f40c8e3a202d794603b4772d04b7b0644848e97064736f6c634300080e0033",
    "immutableReferences": {},
    "source": "// SPDX-License-Identifier: MIT\r\npragma solidity ^0.8.0;\r\n\r\ncontract PlagiarismChecker {\r\n    mapping(string => bool) private documentHashes;\r\n    event CheckResult(bool isPlagiarized, string documentHash);\r\n\r\n    function checkPlagiarism(string memory documentHash) public {\r\n        bool isPlagiarized = documentHashes[documentHash];\r\n\r\n        emit CheckResult(isPlagiarized, documentHash);\r\n\r\n        if (!isPlagiarized) {\r\n            documentHashes[documentHash] = true;\r\n        }\r\n    }\r\n}\r\n",
    "sourcePath": "C:\\Users\\Bhuvain Jhamb\\Desktop\\truffleproj\\deploy-your-first-smart-contract-with-truffle\\contracts\\PlagiarismChecker.sol",
    "compiler": {
        "name": "solc",
        "version": "0.8.14+commit.80d49f37.Emscripten.clang"
    },
    "schemaVersion": "3.4.16",
    "updatedAt": "2024-10-07T23:58:43.055Z",
    "networkType": "ethereum",
    "devdoc": {
        "kind": "dev",
        "methods": {},
        "version": 1
    },
    "userdoc": {
        "kind": "user",
        "methods": {},
        "version": 1
    }
}