{
  "contractName": "HealthTracker",
  "abi": [
    {
      "inputs": [
        {
          "internalType": "uint256",
          "name": "",
          "type": "uint256"
        }
      ],
      "name": "records",
      "outputs": [
        {
          "internalType": "string",
          "name": "symptom",
          "type": "string"
        },
        {
          "internalType": "string",
          "name": "medication",
          "type": "string"
        },
        {
          "internalType": "address",
          "name": "patient",
          "type": "address"
        }
      ],
      "stateMutability": "view",
      "type": "function"
    },
    {
      "inputs": [
        {
          "internalType": "string",
          "name": "symptom",
          "type": "string"
        },
        {
          "internalType": "string",
          "name": "medication",
          "type": "string"
        }
      ],
      "name": "addRecord",
      "outputs": [],
      "stateMutability": "nonpayable",
      "type": "function"
    },
    {
      "inputs": [],
      "name": "getRecords",
      "outputs": [
        {
          "components": [
            {
              "internalType": "string",
              "name": "symptom",
              "type": "string"
            },
            {
              "internalType": "string",
              "name": "medication",
              "type": "string"
            },
            {
              "internalType": "address",
              "name": "patient",
              "type": "address"
            }
          ],
          "internalType": "struct HealthTracker.HealthRecord[]",
          "name": "",
          "type": "tuple[]"
        }
      ],
      "stateMutability": "view",
      "type": "function"
    }
  ],
  "bytecode": "0x608060405234801561001057600080fd5b50610a97806100206000396000f3fe608060405234801561001057600080fd5b50600436106100415760003560e01c806334461067146100465780638eff3c2914610078578063c959624814610096575b600080fd5b610060600480360381019061005b9190610664565b6100b2565b60405161006f9392919061081f565b60405180910390f35b61008061021c565b60405161008d91906107fd565b60405180910390f35b6100b060048036038101906100ab91906105f8565b6103f5565b005b600081815481106100c257600080fd5b90600052602060002090600302016000915090508060000180546100e5906109a9565b80601f0160208091040260200160405190810160405280929190818152602001828054610111906109a9565b801561015e5780601f106101335761010080835404028352916020019161015e565b820191906000526020600020905b81548152906001019060200180831161014157829003601f168201915b505050505090806001018054610173906109a9565b80601f016020809104026020016040519081016040528092919081815260200182805461019f906109a9565b80156101ec5780601f106101c1576101008083540402835291602001916101ec565b820191906000526020600020905b8154815290600101906020018083116101cf57829003601f168201915b5050505050908060020160009054906101000a900473ffffffffffffffffffffffffffffffffffffffff16905083565b60606000805480602002602001604051908101604052809291908181526020016000905b828210156103ec5783829060005260206000209060030201604051806060016040529081600082018054610273906109a9565b80601f016020809104026020016040519081016040528092919081815260200182805461029f906109a9565b80156102ec5780601f106102c1576101008083540402835291602001916102ec565b820191906000526020600020905b8154815290600101906020018083116102cf57829003601f168201915b50505050508152602001600182018054610305906109a9565b80601f0160208091040260200160405190810160405280929190818152602001828054610331906109a9565b801561037e5780601f106103535761010080835404028352916020019161037e565b820191906000526020600020905b81548152906001019060200180831161036157829003601f168201915b505050505081526020016002820160009054906101000a900473ffffffffffffffffffffffffffffffffffffffff1673ffffffffffffffffffffffffffffffffffffffff1673ffffffffffffffffffffffffffffffffffffffff168152505081526020019060010190610240565b50505050905090565b600060405180606001604052808481526020018381526020013373ffffffffffffffffffffffffffffffffffffffff168152509080600181540180825580915050600190039060005260206000209060030201600090919091909150600082015181600001908051906020019061046d9291906104d8565b50602082015181600101908051906020019061048a9291906104d8565b5060408201518160020160006101000a81548173ffffffffffffffffffffffffffffffffffffffff021916908373ffffffffffffffffffffffffffffffffffffffff16021790555050505050565b8280546104e4906109a9565b90600052602060002090601f016020900481019282610506576000855561054d565b82601f1061051f57805160ff191683800117855561054d565b8280016001018555821561054d579182015b8281111561054c578251825591602001919060010190610531565b5b50905061055a919061055e565b5090565b5b8082111561057757600081600090555060010161055f565b5090565b600061058e61058984610895565b610864565b9050828152602081018484840111156105a657600080fd5b6105b1848285610967565b509392505050565b600082601f8301126105ca57600080fd5b81356105da84826020860161057b565b91505092915050565b6000813590506105f281610a4a565b92915050565b6000806040838503121561060b57600080fd5b600083013567ffffffffffffffff81111561062557600080fd5b610631858286016105b9565b925050602083013567ffffffffffffffff81111561064e57600080fd5b61065a858286016105b9565b9150509250929050565b60006020828403121561067657600080fd5b6000610684848285016105e3565b91505092915050565b600061069983836107a6565b905092915050565b6106aa8161092b565b82525050565b6106b98161092b565b82525050565b60006106ca826108d5565b6106d481856108f8565b9350836020820285016106e6856108c5565b8060005b858110156107225784840389528151610703858261068d565b945061070e836108eb565b925060208a019950506001810190506106ea565b50829750879550505050505092915050565b600061073f826108e0565b6107498185610909565b9350610759818560208601610976565b61076281610a39565b840191505092915050565b6000610778826108e0565b610782818561091a565b9350610792818560208601610976565b61079b81610a39565b840191505092915050565b600060608301600083015184820360008601526107c38282610734565b915050602083015184820360208601526107dd8282610734565b91505060408301516107f260408601826106a1565b508091505092915050565b6000602082019050818103600083015261081781846106bf565b905092915050565b60006060820190508181036000830152610839818661076d565b9050818103602083015261084d818561076d565b905061085c60408301846106b0565b949350505050565b6000604051905081810181811067ffffffffffffffff8211171561088b5761088a610a0a565b5b8060405250919050565b600067ffffffffffffffff8211156108b0576108af610a0a565b5b601f19601f8301169050602081019050919050565b6000819050602082019050919050565b600081519050919050565b600081519050919050565b6000602082019050919050565b600082825260208201905092915050565b600082825260208201905092915050565b600082825260208201905092915050565b60006109368261093d565b9050919050565b600073ffffffffffffffffffffffffffffffffffffffff82169050919050565b6000819050919050565b82818337600083830152505050565b60005b83811015610994578082015181840152602081019050610979565b838111156109a3576000848401525b50505050565b600060028204905060018216806109c157607f821691505b602082108114156109d5576109d46109db565b5b50919050565b7f4e487b7100000000000000000000000000000000000000000000000000000000600052602260045260246000fd5b7f4e487b7100000000000000000000000000000000000000000000000000000000600052604160045260246000fd5b6000601f19601f8301169050919050565b610a538161095d565b8114610a5e57600080fd5b5056fea26469706673582212202e282c379c7ac3f26e411e5412150bfc70ef5702ce4fa18f84e5007232d33d6e64736f6c63430008000033",
  "immutableReferences": {},
  "source": "// SPDX-License-Identifier: MIT\r\npragma solidity ^0.8.0;\r\n\r\ncontract HealthTracker {\r\n    struct HealthRecord {\r\n        string symptom;\r\n        string medication;\r\n        address patient;\r\n    }\r\n\r\n    HealthRecord[] public records;\r\n\r\n    function addRecord(string memory symptom, string memory medication) public {\r\n        records.push(HealthRecord(symptom, medication, msg.sender));\r\n    }\r\n\r\n    function getRecords() public view returns (HealthRecord[] memory) {\r\n        return records;\r\n    }\r\n}",
  "sourcePath": "E:\\web3\\health\\contracts\\healthtracker.sol",
  "compiler": {
    "name": "solc",
    "version": "0.8.0+commit.c7dfd78e.Emscripten.clang"
  },
  "schemaVersion": "3.4.16",
  "updatedAt": "2024-10-07T17:55:45.109Z",
  "devdoc": {
    "kind": "dev",
    "methods": {},
    "version": 1
  },
  "userdoc": {
    "kind": "user",
    "methods": {},
    "version": 1
  }
}