{
  "contractName": "PlagiarismChecker",
  "abi": [
    {
      "anonymous": false,
      "inputs": [
        {
          "indexed": false,
          "internalType": "bool",
          "name": "isPlagiarized",
          "type": "bool"
        },
        {
          "indexed": false,
          "internalType": "string",
          "name": "documentHash",
          "type": "string"
        }
      ],
      "name": "CheckResult",
      "type": "event"
    },
    {
      "inputs": [
        {
          "internalType": "string",
          "name": "documentHash",
          "type": "string"
        }
      ],
      "name": "checkPlagiarism",
      "outputs": [],
      "stateMutability": "nonpayable",
      "type": "function"
    }
  ],
  "bytecode": "0x608060405234801561001057600080fd5b506103aa806100206000396000f3fe608060405234801561001057600080fd5b506004361061002b5760003560e01c8063caa31af514610030575b600080fd5b61004a6004803603810190610045919061015d565b61004c565b005b6000808260405161005d9190610217565b908152602001604051809103902060009054906101000a900460ff1690507fe60f5f4e47817b4a25bee1745c956e9008d0d4f7163485d16e350b27330ca96581836040516100ac92919061022e565b60405180910390a1806100f15760016000836040516100cb9190610217565b908152602001604051809103902060006101000a81548160ff0219169083151502179055505b5050565b60006101086101038461028f565b61025e565b90508281526020810184848401111561012057600080fd5b61012b8482856102f2565b509392505050565b600082601f83011261014457600080fd5b81356101548482602086016100f5565b91505092915050565b60006020828403121561016f57600080fd5b600082013567ffffffffffffffff81111561018957600080fd5b61019584828501610133565b91505092915050565b6101a7816102e6565b82525050565b60006101b8826102bf565b6101c281856102ca565b93506101d2818560208601610301565b6101db81610363565b840191505092915050565b60006101f1826102bf565b6101fb81856102db565b935061020b818560208601610301565b80840191505092915050565b600061022382846101e6565b915081905092915050565b6000604082019050610243600083018561019e565b818103602083015261025581846101ad565b90509392505050565b6000604051905081810181811067ffffffffffffffff8211171561028557610284610334565b5b8060405250919050565b600067ffffffffffffffff8211156102aa576102a9610334565b5b601f19601f8301169050602081019050919050565b600081519050919050565b600082825260208201905092915050565b600081905092915050565b60008115159050919050565b82818337600083830152505050565b60005b8381101561031f578082015181840152602081019050610304565b8381111561032e576000848401525b50505050565b7f4e487b7100000000000000000000000000000000000000000000000000000000600052604160045260246000fd5b6000601f19601f830116905091905056fea2646970667358221220ee8333ac7f4aa1a1ecbbb1af2b4fc4e57ffabaf5cad348554c2c4565a1b4a6b664736f6c63430008000033",
  "immutableReferences": {},
  "source": "// SPDX-License-Identifier: MIT\r\npragma solidity ^0.8.0;\r\n\r\ncontract PlagiarismChecker {\r\n    mapping(string => bool) private documentHashes;\r\n    event CheckResult(bool isPlagiarized, string documentHash);\r\n\r\n    function checkPlagiarism(string memory documentHash) public {\r\n        bool isPlagiarized = documentHashes[documentHash];\r\n\r\n        emit CheckResult(isPlagiarized, documentHash);\r\n\r\n        if (!isPlagiarized) {\r\n            documentHashes[documentHash] = true;\r\n        }\r\n    }\r\n}\r\n",
  "sourcePath": "C:\\Users\\Bhuvain Jhamb\\Desktop\\truffleproj\\deploy-your-first-smart-contract-with-truffle\\contracts\\PlagiarismChecker.sol",
  "compiler": {
    "name": "solc",
    "version": "0.8.0+commit.c7dfd78e.Emscripten.clang"
  },
  "schemaVersion": "3.4.16",
  "updatedAt": "2024-10-08T00:41:47.031Z",
  "networkType": "ethereum",
  "devdoc": {
    "kind": "dev",
    "methods": {},
    "version": 1
  },
  "userdoc": {
    "kind": "user",
    "methods": {},
    "version": 1
  }
}